{
  "_format": "hh-sol-artifact-1",
  "contractName": "CountyImages",
  "sourceName": "contracts/CountyImages.sol",
  "abi": [
    {
      "inputs": [],
      "stateMutability": "nonpayable",
      "type": "constructor"
    },
    {
      "inputs": [],
      "name": "Error__ImageNotAdded",
      "type": "error"
    },
    {
      "inputs": [],
      "name": "Error__UnauthorizedUser",
      "type": "error"
    },
    {
      "anonymous": false,
      "inputs": [
        {
          "indexed": true,
          "internalType": "address",
          "name": "owner",
          "type": "address"
        },
        {
          "indexed": true,
          "internalType": "address",
          "name": "approved",
          "type": "address"
        },
        {
          "indexed": true,
          "internalType": "uint256",
          "name": "tokenId",
          "type": "uint256"
        }
      ],
      "name": "Approval",
      "type": "event"
    },
    {
      "anonymous": false,
      "inputs": [
        {
          "indexed": true,
          "internalType": "address",
          "name": "owner",
          "type": "address"
        },
        {
          "indexed": true,
          "internalType": "address",
          "name": "operator",
          "type": "address"
        },
        {
          "indexed": false,
          "internalType": "bool",
          "name": "approved",
          "type": "bool"
        }
      ],
      "name": "ApprovalForAll",
      "type": "event"
    },
    {
      "anonymous": false,
      "inputs": [
        {
          "indexed": true,
          "internalType": "address",
          "name": "previousOwner",
          "type": "address"
        },
        {
          "indexed": true,
          "internalType": "address",
          "name": "newOwner",
          "type": "address"
        }
      ],
      "name": "OwnershipTransferred",
      "type": "event"
    },
    {
      "anonymous": false,
      "inputs": [
        {
          "indexed": true,
          "internalType": "address",
          "name": "from",
          "type": "address"
        },
        {
          "indexed": true,
          "internalType": "address",
          "name": "to",
          "type": "address"
        },
        {
          "indexed": true,
          "internalType": "uint256",
          "name": "tokenId",
          "type": "uint256"
        }
      ],
      "name": "Transfer",
      "type": "event"
    },
    {
      "anonymous": false,
      "inputs": [
        {
          "indexed": true,
          "internalType": "uint256",
          "name": "stateNftId",
          "type": "uint256"
        }
      ],
      "name": "imageAdded",
      "type": "event"
    },
    {
      "anonymous": false,
      "inputs": [
        {
          "indexed": true,
          "internalType": "uint256",
          "name": "stateNftId",
          "type": "uint256"
        }
      ],
      "name": "imageUpdated",
      "type": "event"
    },
    {
      "inputs": [
        {
          "internalType": "uint256",
          "name": "stateNftId",
          "type": "uint256"
        },
        {
          "internalType": "string",
          "name": "imageURL",
          "type": "string"
        }
      ],
      "name": "addImage",
      "outputs": [
        {
          "internalType": "uint256",
          "name": "",
          "type": "uint256"
        }
      ],
      "stateMutability": "nonpayable",
      "type": "function"
    },
    {
      "inputs": [
        {
          "internalType": "address",
          "name": "to",
          "type": "address"
        },
        {
          "internalType": "uint256",
          "name": "tokenId",
          "type": "uint256"
        }
      ],
      "name": "approve",
      "outputs": [],
      "stateMutability": "nonpayable",
      "type": "function"
    },
    {
      "inputs": [
        {
          "internalType": "address",
          "name": "owner",
          "type": "address"
        }
      ],
      "name": "balanceOf",
      "outputs": [
        {
          "internalType": "uint256",
          "name": "",
          "type": "uint256"
        }
      ],
      "stateMutability": "view",
      "type": "function"
    },
    {
      "inputs": [
        {
          "internalType": "uint256",
          "name": "tokenId",
          "type": "uint256"
        }
      ],
      "name": "getApproved",
      "outputs": [
        {
          "internalType": "address",
          "name": "",
          "type": "address"
        }
      ],
      "stateMutability": "view",
      "type": "function"
    },
    {
      "inputs": [
        {
          "internalType": "uint256",
          "name": "stateNftId",
          "type": "uint256"
        }
      ],
      "name": "getStateNftToTokenURI",
      "outputs": [
        {
          "internalType": "string",
          "name": "",
          "type": "string"
        }
      ],
      "stateMutability": "view",
      "type": "function"
    },
    {
      "inputs": [
        {
          "internalType": "address",
          "name": "owner",
          "type": "address"
        },
        {
          "internalType": "address",
          "name": "operator",
          "type": "address"
        }
      ],
      "name": "isApprovedForAll",
      "outputs": [
        {
          "internalType": "bool",
          "name": "",
          "type": "bool"
        }
      ],
      "stateMutability": "view",
      "type": "function"
    },
    {
      "inputs": [],
      "name": "name",
      "outputs": [
        {
          "internalType": "string",
          "name": "",
          "type": "string"
        }
      ],
      "stateMutability": "view",
      "type": "function"
    },
    {
      "inputs": [],
      "name": "owner",
      "outputs": [
        {
          "internalType": "address",
          "name": "",
          "type": "address"
        }
      ],
      "stateMutability": "view",
      "type": "function"
    },
    {
      "inputs": [
        {
          "internalType": "uint256",
          "name": "tokenId",
          "type": "uint256"
        }
      ],
      "name": "ownerOf",
      "outputs": [
        {
          "internalType": "address",
          "name": "",
          "type": "address"
        }
      ],
      "stateMutability": "view",
      "type": "function"
    },
    {
      "inputs": [],
      "name": "renounceOwnership",
      "outputs": [],
      "stateMutability": "nonpayable",
      "type": "function"
    },
    {
      "inputs": [
        {
          "internalType": "address",
          "name": "from",
          "type": "address"
        },
        {
          "internalType": "address",
          "name": "to",
          "type": "address"
        },
        {
          "internalType": "uint256",
          "name": "tokenId",
          "type": "uint256"
        }
      ],
      "name": "safeTransferFrom",
      "outputs": [],
      "stateMutability": "nonpayable",
      "type": "function"
    },
    {
      "inputs": [
        {
          "internalType": "address",
          "name": "from",
          "type": "address"
        },
        {
          "internalType": "address",
          "name": "to",
          "type": "address"
        },
        {
          "internalType": "uint256",
          "name": "tokenId",
          "type": "uint256"
        },
        {
          "internalType": "bytes",
          "name": "_data",
          "type": "bytes"
        }
      ],
      "name": "safeTransferFrom",
      "outputs": [],
      "stateMutability": "nonpayable",
      "type": "function"
    },
    {
      "inputs": [
        {
          "internalType": "address",
          "name": "operator",
          "type": "address"
        },
        {
          "internalType": "bool",
          "name": "approved",
          "type": "bool"
        }
      ],
      "name": "setApprovalForAll",
      "outputs": [],
      "stateMutability": "nonpayable",
      "type": "function"
    },
    {
      "inputs": [
        {
          "internalType": "uint256",
          "name": "",
          "type": "uint256"
        }
      ],
      "name": "stateNftOwner",
      "outputs": [
        {
          "internalType": "address",
          "name": "",
          "type": "address"
        }
      ],
      "stateMutability": "view",
      "type": "function"
    },
    {
      "inputs": [
        {
          "internalType": "uint256",
          "name": "",
          "type": "uint256"
        }
      ],
      "name": "stateNftToImageId",
      "outputs": [
        {
          "internalType": "uint256",
          "name": "",
          "type": "uint256"
        }
      ],
      "stateMutability": "view",
      "type": "function"
    },
    {
      "inputs": [
        {
          "internalType": "bytes4",
          "name": "interfaceId",
          "type": "bytes4"
        }
      ],
      "name": "supportsInterface",
      "outputs": [
        {
          "internalType": "bool",
          "name": "",
          "type": "bool"
        }
      ],
      "stateMutability": "view",
      "type": "function"
    },
    {
      "inputs": [],
      "name": "symbol",
      "outputs": [
        {
          "internalType": "string",
          "name": "",
          "type": "string"
        }
      ],
      "stateMutability": "view",
      "type": "function"
    },
    {
      "inputs": [
        {
          "internalType": "uint256",
          "name": "tokenId",
          "type": "uint256"
        }
      ],
      "name": "tokenURI",
      "outputs": [
        {
          "internalType": "string",
          "name": "",
          "type": "string"
        }
      ],
      "stateMutability": "view",
      "type": "function"
    },
    {
      "inputs": [
        {
          "internalType": "address",
          "name": "from",
          "type": "address"
        },
        {
          "internalType": "address",
          "name": "to",
          "type": "address"
        },
        {
          "internalType": "uint256",
          "name": "tokenId",
          "type": "uint256"
        }
      ],
      "name": "transferFrom",
      "outputs": [],
      "stateMutability": "nonpayable",
      "type": "function"
    },
    {
      "inputs": [
        {
          "internalType": "address",
          "name": "newOwner",
          "type": "address"
        }
      ],
      "name": "transferOwnership",
      "outputs": [],
      "stateMutability": "nonpayable",
      "type": "function"
    },
    {
      "inputs": [
        {
          "internalType": "uint256",
          "name": "stateNftId",
          "type": "uint256"
        },
        {
          "internalType": "string",
          "name": "imageURL",
          "type": "string"
        }
      ],
      "name": "updateImage",
      "outputs": [],
      "stateMutability": "nonpayable",
      "type": "function"
    }
  ],
  "bytecode": "0x60806040523480156200001157600080fd5b506040518060400160405280600a81526020017f5374617465496d616765000000000000000000000000000000000000000000008152506040518060400160405280600381526020017f53494d0000000000000000000000000000000000000000000000000000000000815250816000908051906020019062000096929190620001d3565b508060019080519060200190620000af929190620001d3565b505050620000d2620000c6620000ef60201b60201c565b620000f760201b60201c565b620000e96008620001bd60201b620010531760201c565b620002e7565b600033905090565b6000600760009054906101000a900473ffffffffffffffffffffffffffffffffffffffff16905081600760006101000a81548173ffffffffffffffffffffffffffffffffffffffff021916908373ffffffffffffffffffffffffffffffffffffffff1602179055508173ffffffffffffffffffffffffffffffffffffffff168173ffffffffffffffffffffffffffffffffffffffff167f8be0079c531659141344cd1fd0a4f28419497f9722a3daafe3b4186f6b6457e060405160405180910390a35050565b6001816000016000828254019250508190555050565b828054620001e190620002b2565b90600052602060002090601f01602090048101928262000205576000855562000251565b82601f106200022057805160ff191683800117855562000251565b8280016001018555821562000251579182015b828111156200025057825182559160200191906001019062000233565b5b50905062000260919062000264565b5090565b5b808211156200027f57600081600090555060010162000265565b5090565b7f4e487b7100000000000000000000000000000000000000000000000000000000600052602260045260246000fd5b60006002820490506001821680620002cb57607f821691505b602082108103620002e157620002e062000283565b5b50919050565b6132a880620002f76000396000f3fe608060405234801561001057600080fd5b50600436106101375760003560e01c8063715018a6116100b8578063a22cb4651161007c578063a22cb46514610360578063ab2258a21461037c578063b88d4fde146103ac578063c87b56dd146103c8578063e985e9c5146103f8578063f2fde38b1461042857610137565b8063715018a6146102ce5780638109b332146102d857806384b9e9df146103085780638da5cb5b1461032457806395d89b411461034257610137565b806342842e0e116100ff57806342842e0e146101f2578063458fe5341461020e5780634fd9e3a31461023e5780636352211e1461026e57806370a082311461029e57610137565b806301ffc9a71461013c57806306fdde031461016c578063081812fc1461018a578063095ea7b3146101ba57806323b872dd146101d6575b600080fd5b61015660048036038101906101519190611f0e565b610444565b6040516101639190611f56565b60405180910390f35b610174610526565b604051610181919061200a565b60405180910390f35b6101a4600480360381019061019f9190612062565b6105b8565b6040516101b191906120d0565b60405180910390f35b6101d460048036038101906101cf9190612117565b61063d565b005b6101f060048036038101906101eb9190612157565b610754565b005b61020c60048036038101906102079190612157565b6107b4565b005b61022860048036038101906102239190612062565b6107d4565b604051610235919061200a565b60405180910390f35b61025860048036038101906102539190612062565b61084c565b60405161026591906121b9565b60405180910390f35b61028860048036038101906102839190612062565b610864565b60405161029591906120d0565b60405180910390f35b6102b860048036038101906102b391906121d4565b610915565b6040516102c591906121b9565b60405180910390f35b6102d66109cc565b005b6102f260048036038101906102ed9190612062565b610a54565b6040516102ff91906120d0565b60405180910390f35b610322600480360381019061031d9190612336565b610a87565b005b61032c610b75565b60405161033991906120d0565b60405180910390f35b61034a610b9f565b604051610357919061200a565b60405180910390f35b61037a600480360381019061037591906123be565b610c31565b005b61039660048036038101906103919190612336565b610c47565b6040516103a391906121b9565b60405180910390f35b6103c660048036038101906103c1919061249f565b610d15565b005b6103e260048036038101906103dd9190612062565b610d77565b6040516103ef919061200a565b60405180910390f35b610412600480360381019061040d9190612522565b610ec8565b60405161041f9190611f56565b60405180910390f35b610442600480360381019061043d91906121d4565b610f5c565b005b60007f80ac58cd000000000000000000000000000000000000000000000000000000007bffffffffffffffffffffffffffffffffffffffffffffffffffffffff1916827bffffffffffffffffffffffffffffffffffffffffffffffffffffffff1916148061050f57507f5b5e139f000000000000000000000000000000000000000000000000000000007bffffffffffffffffffffffffffffffffffffffffffffffffffffffff1916827bffffffffffffffffffffffffffffffffffffffffffffffffffffffff1916145b8061051f575061051e82611069565b5b9050919050565b60606000805461053590612591565b80601f016020809104026020016040519081016040528092919081815260200182805461056190612591565b80156105ae5780601f10610583576101008083540402835291602001916105ae565b820191906000526020600020905b81548152906001019060200180831161059157829003601f168201915b5050505050905090565b60006105c3826110d3565b610602576040517f08c379a00000000000000000000000000000000000000000000000000000000081526004016105f990612634565b60405180910390fd5b6004600083815260200190815260200160002060009054906101000a900473ffffffffffffffffffffffffffffffffffffffff169050919050565b600061064882610864565b90508073ffffffffffffffffffffffffffffffffffffffff168373ffffffffffffffffffffffffffffffffffffffff16036106b8576040517f08c379a00000000000000000000000000000000000000000000000000000000081526004016106af906126c6565b60405180910390fd5b8073ffffffffffffffffffffffffffffffffffffffff166106d761113f565b73ffffffffffffffffffffffffffffffffffffffff16148061070657506107058161070061113f565b610ec8565b5b610745576040517f08c379a000000000000000000000000000000000000000000000000000000000815260040161073c90612758565b60405180910390fd5b61074f8383611147565b505050565b61076561075f61113f565b82611200565b6107a4576040517f08c379a000000000000000000000000000000000000000000000000000000000815260040161079b906127ea565b60405180910390fd5b6107af8383836112de565b505050565b6107cf83838360405180602001604052806000815250610d15565b505050565b60606000600960008481526020019081526020016000205403610823576040517f1aea071c00000000000000000000000000000000000000000000000000000000815260040160405180910390fd5b60006009600084815260200190815260200160002054905061084481610d77565b915050919050565b60096020528060005260406000206000915090505481565b6000806002600084815260200190815260200160002060009054906101000a900473ffffffffffffffffffffffffffffffffffffffff169050600073ffffffffffffffffffffffffffffffffffffffff168173ffffffffffffffffffffffffffffffffffffffff160361090c576040517f08c379a00000000000000000000000000000000000000000000000000000000081526004016109039061287c565b60405180910390fd5b80915050919050565b60008073ffffffffffffffffffffffffffffffffffffffff168273ffffffffffffffffffffffffffffffffffffffff1603610985576040517f08c379a000000000000000000000000000000000000000000000000000000000815260040161097c9061290e565b60405180910390fd5b600360008373ffffffffffffffffffffffffffffffffffffffff1673ffffffffffffffffffffffffffffffffffffffff168152602001908152602001600020549050919050565b6109d461113f565b73ffffffffffffffffffffffffffffffffffffffff166109f2610b75565b73ffffffffffffffffffffffffffffffffffffffff1614610a48576040517f08c379a0000000000000000000000000000000000000000000000000000000008152600401610a3f9061297a565b60405180910390fd5b610a526000611544565b565b600a6020528060005260406000206000915054906101000a900473ffffffffffffffffffffffffffffffffffffffff1681565b813373ffffffffffffffffffffffffffffffffffffffff16600a600083815260200190815260200160002060009054906101000a900473ffffffffffffffffffffffffffffffffffffffff1673ffffffffffffffffffffffffffffffffffffffff1614610b20576040517f89d589f900000000000000000000000000000000000000000000000000000000815260040160405180910390fd5b600060096000858152602001908152602001600020549050610b42818461160a565b837f3b26f26285243ba2b49750eb56af0ea9dc230c19ef9cccf5e15aaff27cf4dfae60405160405180910390a250505050565b6000600760009054906101000a900473ffffffffffffffffffffffffffffffffffffffff16905090565b606060018054610bae90612591565b80601f0160208091040260200160405190810160405280929190818152602001828054610bda90612591565b8015610c275780601f10610bfc57610100808354040283529160200191610c27565b820191906000526020600020905b815481529060010190602001808311610c0a57829003601f168201915b5050505050905090565b610c43610c3c61113f565b838361167e565b5050565b600080610c5460086117ea565b9050610c6033826117f8565b80600960008681526020019081526020016000208190555033600a600086815260200190815260200160002060006101000a81548173ffffffffffffffffffffffffffffffffffffffff021916908373ffffffffffffffffffffffffffffffffffffffff160217905550610cd4818461160a565b610cde6008611053565b837fb5b59f8848e8855d7d2b80d385277355e22148fe9923b858b22076f29174c0ce60405160405180910390a28091505092915050565b610d26610d2061113f565b83611200565b610d65576040517f08c379a0000000000000000000000000000000000000000000000000000000008152600401610d5c906127ea565b60405180910390fd5b610d71848484846119d1565b50505050565b6060610d82826110d3565b610dc1576040517f08c379a0000000000000000000000000000000000000000000000000000000008152600401610db890612a0c565b60405180910390fd5b6000600660008481526020019081526020016000208054610de190612591565b80601f0160208091040260200160405190810160405280929190818152602001828054610e0d90612591565b8015610e5a5780601f10610e2f57610100808354040283529160200191610e5a565b820191906000526020600020905b815481529060010190602001808311610e3d57829003601f168201915b505050505090506000610e6b611a2d565b90506000815103610e80578192505050610ec3565b600082511115610eb5578082604051602001610e9d929190612a68565b60405160208183030381529060405292505050610ec3565b610ebe84611a44565b925050505b919050565b6000600560008473ffffffffffffffffffffffffffffffffffffffff1673ffffffffffffffffffffffffffffffffffffffff16815260200190815260200160002060008373ffffffffffffffffffffffffffffffffffffffff1673ffffffffffffffffffffffffffffffffffffffff16815260200190815260200160002060009054906101000a900460ff16905092915050565b610f6461113f565b73ffffffffffffffffffffffffffffffffffffffff16610f82610b75565b73ffffffffffffffffffffffffffffffffffffffff1614610fd8576040517f08c379a0000000000000000000000000000000000000000000000000000000008152600401610fcf9061297a565b60405180910390fd5b600073ffffffffffffffffffffffffffffffffffffffff168173ffffffffffffffffffffffffffffffffffffffff1603611047576040517f08c379a000000000000000000000000000000000000000000000000000000000815260040161103e90612afe565b60405180910390fd5b61105081611544565b50565b6001816000016000828254019250508190555050565b60007f01ffc9a7000000000000000000000000000000000000000000000000000000007bffffffffffffffffffffffffffffffffffffffffffffffffffffffff1916827bffffffffffffffffffffffffffffffffffffffffffffffffffffffff1916149050919050565b60008073ffffffffffffffffffffffffffffffffffffffff166002600084815260200190815260200160002060009054906101000a900473ffffffffffffffffffffffffffffffffffffffff1673ffffffffffffffffffffffffffffffffffffffff1614159050919050565b600033905090565b816004600083815260200190815260200160002060006101000a81548173ffffffffffffffffffffffffffffffffffffffff021916908373ffffffffffffffffffffffffffffffffffffffff160217905550808273ffffffffffffffffffffffffffffffffffffffff166111ba83610864565b73ffffffffffffffffffffffffffffffffffffffff167f8c5be1e5ebec7d5bd14f71427d1e84f3dd0314c0f7b2291e5b200ac8c7c3b92560405160405180910390a45050565b600061120b826110d3565b61124a576040517f08c379a000000000000000000000000000000000000000000000000000000000815260040161124190612b90565b60405180910390fd5b600061125583610864565b90508073ffffffffffffffffffffffffffffffffffffffff168473ffffffffffffffffffffffffffffffffffffffff16148061129757506112968185610ec8565b5b806112d557508373ffffffffffffffffffffffffffffffffffffffff166112bd846105b8565b73ffffffffffffffffffffffffffffffffffffffff16145b91505092915050565b8273ffffffffffffffffffffffffffffffffffffffff166112fe82610864565b73ffffffffffffffffffffffffffffffffffffffff1614611354576040517f08c379a000000000000000000000000000000000000000000000000000000000815260040161134b90612c22565b60405180910390fd5b600073ffffffffffffffffffffffffffffffffffffffff168273ffffffffffffffffffffffffffffffffffffffff16036113c3576040517f08c379a00000000000000000000000000000000000000000000000000000000081526004016113ba90612cb4565b60405180910390fd5b6113ce838383611aeb565b6113d9600082611147565b6001600360008573ffffffffffffffffffffffffffffffffffffffff1673ffffffffffffffffffffffffffffffffffffffff16815260200190815260200160002060008282546114299190612d03565b925050819055506001600360008473ffffffffffffffffffffffffffffffffffffffff1673ffffffffffffffffffffffffffffffffffffffff16815260200190815260200160002060008282546114809190612d37565b92505081905550816002600083815260200190815260200160002060006101000a81548173ffffffffffffffffffffffffffffffffffffffff021916908373ffffffffffffffffffffffffffffffffffffffff160217905550808273ffffffffffffffffffffffffffffffffffffffff168473ffffffffffffffffffffffffffffffffffffffff167fddf252ad1be2c89b69c2b068fc378daa952ba7f163c4a11628f55a4df523b3ef60405160405180910390a461153f838383611af0565b505050565b6000600760009054906101000a900473ffffffffffffffffffffffffffffffffffffffff16905081600760006101000a81548173ffffffffffffffffffffffffffffffffffffffff021916908373ffffffffffffffffffffffffffffffffffffffff1602179055508173ffffffffffffffffffffffffffffffffffffffff168173ffffffffffffffffffffffffffffffffffffffff167f8be0079c531659141344cd1fd0a4f28419497f9722a3daafe3b4186f6b6457e060405160405180910390a35050565b611613826110d3565b611652576040517f08c379a000000000000000000000000000000000000000000000000000000000815260040161164990612dff565b60405180910390fd5b80600660008481526020019081526020016000209080519060200190611679929190611dff565b505050565b8173ffffffffffffffffffffffffffffffffffffffff168373ffffffffffffffffffffffffffffffffffffffff16036116ec576040517f08c379a00000000000000000000000000000000000000000000000000000000081526004016116e390612e6b565b60405180910390fd5b80600560008573ffffffffffffffffffffffffffffffffffffffff1673ffffffffffffffffffffffffffffffffffffffff16815260200190815260200160002060008473ffffffffffffffffffffffffffffffffffffffff1673ffffffffffffffffffffffffffffffffffffffff16815260200190815260200160002060006101000a81548160ff0219169083151502179055508173ffffffffffffffffffffffffffffffffffffffff168373ffffffffffffffffffffffffffffffffffffffff167f17307eab39ab6107e8899845ad3d59bd9653f200f220920489ca2b5937696c31836040516117dd9190611f56565b60405180910390a3505050565b600081600001549050919050565b600073ffffffffffffffffffffffffffffffffffffffff168273ffffffffffffffffffffffffffffffffffffffff1603611867576040517f08c379a000000000000000000000000000000000000000000000000000000000815260040161185e90612ed7565b60405180910390fd5b611870816110d3565b156118b0576040517f08c379a00000000000000000000000000000000000000000000000000000000081526004016118a790612f43565b60405180910390fd5b6118bc60008383611aeb565b6001600360008473ffffffffffffffffffffffffffffffffffffffff1673ffffffffffffffffffffffffffffffffffffffff168152602001908152602001600020600082825461190c9190612d37565b92505081905550816002600083815260200190815260200160002060006101000a81548173ffffffffffffffffffffffffffffffffffffffff021916908373ffffffffffffffffffffffffffffffffffffffff160217905550808273ffffffffffffffffffffffffffffffffffffffff16600073ffffffffffffffffffffffffffffffffffffffff167fddf252ad1be2c89b69c2b068fc378daa952ba7f163c4a11628f55a4df523b3ef60405160405180910390a46119cd60008383611af0565b5050565b6119dc8484846112de565b6119e884848484611af5565b611a27576040517f08c379a0000000000000000000000000000000000000000000000000000000008152600401611a1e90612fd5565b60405180910390fd5b50505050565b606060405180602001604052806000815250905090565b6060611a4f826110d3565b611a8e576040517f08c379a0000000000000000000000000000000000000000000000000000000008152600401611a8590613067565b60405180910390fd5b6000611a98611a2d565b90506000815111611ab85760405180602001604052806000815250611ae3565b80611ac284611c7c565b604051602001611ad3929190612a68565b6040516020818303038152906040525b915050919050565b505050565b505050565b6000611b168473ffffffffffffffffffffffffffffffffffffffff16611ddc565b15611c6f578373ffffffffffffffffffffffffffffffffffffffff1663150b7a02611b3f61113f565b8786866040518563ffffffff1660e01b8152600401611b6194939291906130dc565b6020604051808303816000875af1925050508015611b9d57506040513d601f19601f82011682018060405250810190611b9a919061313d565b60015b611c1f573d8060008114611bcd576040519150601f19603f3d011682016040523d82523d6000602084013e611bd2565b606091505b506000815103611c17576040517f08c379a0000000000000000000000000000000000000000000000000000000008152600401611c0e90612fd5565b60405180910390fd5b805181602001fd5b63150b7a0260e01b7bffffffffffffffffffffffffffffffffffffffffffffffffffffffff1916817bffffffffffffffffffffffffffffffffffffffffffffffffffffffff191614915050611c74565b600190505b949350505050565b606060008203611cc3576040518060400160405280600181526020017f30000000000000000000000000000000000000000000000000000000000000008152509050611dd7565b600082905060005b60008214611cf5578080611cde9061316a565b915050600a82611cee91906131e1565b9150611ccb565b60008167ffffffffffffffff811115611d1157611d1061220b565b5b6040519080825280601f01601f191660200182016040528015611d435781602001600182028036833780820191505090505b5090505b60008514611dd057600182611d5c9190612d03565b9150600a85611d6b9190613212565b6030611d779190612d37565b60f81b818381518110611d8d57611d8c613243565b5b60200101907effffffffffffffffffffffffffffffffffffffffffffffffffffffffffffff1916908160001a905350600a85611dc991906131e1565b9450611d47565b8093505050505b919050565b6000808273ffffffffffffffffffffffffffffffffffffffff163b119050919050565b828054611e0b90612591565b90600052602060002090601f016020900481019282611e2d5760008555611e74565b82601f10611e4657805160ff1916838001178555611e74565b82800160010185558215611e74579182015b82811115611e73578251825591602001919060010190611e58565b5b509050611e819190611e85565b5090565b5b80821115611e9e576000816000905550600101611e86565b5090565b6000604051905090565b600080fd5b600080fd5b60007fffffffff0000000000000000000000000000000000000000000000000000000082169050919050565b611eeb81611eb6565b8114611ef657600080fd5b50565b600081359050611f0881611ee2565b92915050565b600060208284031215611f2457611f23611eac565b5b6000611f3284828501611ef9565b91505092915050565b60008115159050919050565b611f5081611f3b565b82525050565b6000602082019050611f6b6000830184611f47565b92915050565b600081519050919050565b600082825260208201905092915050565b60005b83811015611fab578082015181840152602081019050611f90565b83811115611fba576000848401525b50505050565b6000601f19601f8301169050919050565b6000611fdc82611f71565b611fe68185611f7c565b9350611ff6818560208601611f8d565b611fff81611fc0565b840191505092915050565b600060208201905081810360008301526120248184611fd1565b905092915050565b6000819050919050565b61203f8161202c565b811461204a57600080fd5b50565b60008135905061205c81612036565b92915050565b60006020828403121561207857612077611eac565b5b60006120868482850161204d565b91505092915050565b600073ffffffffffffffffffffffffffffffffffffffff82169050919050565b60006120ba8261208f565b9050919050565b6120ca816120af565b82525050565b60006020820190506120e560008301846120c1565b92915050565b6120f4816120af565b81146120ff57600080fd5b50565b600081359050612111816120eb565b92915050565b6000806040838503121561212e5761212d611eac565b5b600061213c85828601612102565b925050602061214d8582860161204d565b9150509250929050565b6000806000606084860312156121705761216f611eac565b5b600061217e86828701612102565b935050602061218f86828701612102565b92505060406121a08682870161204d565b9150509250925092565b6121b38161202c565b82525050565b60006020820190506121ce60008301846121aa565b92915050565b6000602082840312156121ea576121e9611eac565b5b60006121f884828501612102565b91505092915050565b600080fd5b600080fd5b7f4e487b7100000000000000000000000000000000000000000000000000000000600052604160045260246000fd5b61224382611fc0565b810181811067ffffffffffffffff821117156122625761226161220b565b5b80604052505050565b6000612275611ea2565b9050612281828261223a565b919050565b600067ffffffffffffffff8211156122a1576122a061220b565b5b6122aa82611fc0565b9050602081019050919050565b82818337600083830152505050565b60006122d96122d484612286565b61226b565b9050828152602081018484840111156122f5576122f4612206565b5b6123008482856122b7565b509392505050565b600082601f83011261231d5761231c612201565b5b813561232d8482602086016122c6565b91505092915050565b6000806040838503121561234d5761234c611eac565b5b600061235b8582860161204d565b925050602083013567ffffffffffffffff81111561237c5761237b611eb1565b5b61238885828601612308565b9150509250929050565b61239b81611f3b565b81146123a657600080fd5b50565b6000813590506123b881612392565b92915050565b600080604083850312156123d5576123d4611eac565b5b60006123e385828601612102565b92505060206123f4858286016123a9565b9150509250929050565b600067ffffffffffffffff8211156124195761241861220b565b5b61242282611fc0565b9050602081019050919050565b600061244261243d846123fe565b61226b565b90508281526020810184848401111561245e5761245d612206565b5b6124698482856122b7565b509392505050565b600082601f83011261248657612485612201565b5b813561249684826020860161242f565b91505092915050565b600080600080608085870312156124b9576124b8611eac565b5b60006124c787828801612102565b94505060206124d887828801612102565b93505060406124e98782880161204d565b925050606085013567ffffffffffffffff81111561250a57612509611eb1565b5b61251687828801612471565b91505092959194509250565b6000806040838503121561253957612538611eac565b5b600061254785828601612102565b925050602061255885828601612102565b9150509250929050565b7f4e487b7100000000000000000000000000000000000000000000000000000000600052602260045260246000fd5b600060028204905060018216806125a957607f821691505b6020821081036125bc576125bb612562565b5b50919050565b7f4552433732313a20617070726f76656420717565727920666f72206e6f6e657860008201527f697374656e7420746f6b656e0000000000000000000000000000000000000000602082015250565b600061261e602c83611f7c565b9150612629826125c2565b604082019050919050565b6000602082019050818103600083015261264d81612611565b9050919050565b7f4552433732313a20617070726f76616c20746f2063757272656e74206f776e6560008201527f7200000000000000000000000000000000000000000000000000000000000000602082015250565b60006126b0602183611f7c565b91506126bb82612654565b604082019050919050565b600060208201905081810360008301526126df816126a3565b9050919050565b7f4552433732313a20617070726f76652063616c6c6572206973206e6f74206f7760008201527f6e6572206e6f7220617070726f76656420666f7220616c6c0000000000000000602082015250565b6000612742603883611f7c565b915061274d826126e6565b604082019050919050565b6000602082019050818103600083015261277181612735565b9050919050565b7f4552433732313a207472616e736665722063616c6c6572206973206e6f74206f60008201527f776e6572206e6f7220617070726f766564000000000000000000000000000000602082015250565b60006127d4603183611f7c565b91506127df82612778565b604082019050919050565b60006020820190508181036000830152612803816127c7565b9050919050565b7f4552433732313a206f776e657220717565727920666f72206e6f6e657869737460008201527f656e7420746f6b656e0000000000000000000000000000000000000000000000602082015250565b6000612866602983611f7c565b91506128718261280a565b604082019050919050565b6000602082019050818103600083015261289581612859565b9050919050565b7f4552433732313a2062616c616e636520717565727920666f7220746865207a6560008201527f726f206164647265737300000000000000000000000000000000000000000000602082015250565b60006128f8602a83611f7c565b91506129038261289c565b604082019050919050565b60006020820190508181036000830152612927816128eb565b9050919050565b7f4f776e61626c653a2063616c6c6572206973206e6f7420746865206f776e6572600082015250565b6000612964602083611f7c565b915061296f8261292e565b602082019050919050565b6000602082019050818103600083015261299381612957565b9050919050565b7f45524337323155524953746f726167653a2055524920717565727920666f722060008201527f6e6f6e6578697374656e7420746f6b656e000000000000000000000000000000602082015250565b60006129f6603183611f7c565b9150612a018261299a565b604082019050919050565b60006020820190508181036000830152612a25816129e9565b9050919050565b600081905092915050565b6000612a4282611f71565b612a4c8185612a2c565b9350612a5c818560208601611f8d565b80840191505092915050565b6000612a748285612a37565b9150612a808284612a37565b91508190509392505050565b7f4f776e61626c653a206e6577206f776e657220697320746865207a65726f206160008201527f6464726573730000000000000000000000000000000000000000000000000000602082015250565b6000612ae8602683611f7c565b9150612af382612a8c565b604082019050919050565b60006020820190508181036000830152612b1781612adb565b9050919050565b7f4552433732313a206f70657261746f7220717565727920666f72206e6f6e657860008201527f697374656e7420746f6b656e0000000000000000000000000000000000000000602082015250565b6000612b7a602c83611f7c565b9150612b8582612b1e565b604082019050919050565b60006020820190508181036000830152612ba981612b6d565b9050919050565b7f4552433732313a207472616e736665722066726f6d20696e636f72726563742060008201527f6f776e6572000000000000000000000000000000000000000000000000000000602082015250565b6000612c0c602583611f7c565b9150612c1782612bb0565b604082019050919050565b60006020820190508181036000830152612c3b81612bff565b9050919050565b7f4552433732313a207472616e7366657220746f20746865207a65726f2061646460008201527f7265737300000000000000000000000000000000000000000000000000000000602082015250565b6000612c9e602483611f7c565b9150612ca982612c42565b604082019050919050565b60006020820190508181036000830152612ccd81612c91565b9050919050565b7f4e487b7100000000000000000000000000000000000000000000000000000000600052601160045260246000fd5b6000612d0e8261202c565b9150612d198361202c565b925082821015612d2c57612d2b612cd4565b5b828203905092915050565b6000612d428261202c565b9150612d4d8361202c565b9250827fffffffffffffffffffffffffffffffffffffffffffffffffffffffffffffffff03821115612d8257612d81612cd4565b5b828201905092915050565b7f45524337323155524953746f726167653a2055524920736574206f66206e6f6e60008201527f6578697374656e7420746f6b656e000000000000000000000000000000000000602082015250565b6000612de9602e83611f7c565b9150612df482612d8d565b604082019050919050565b60006020820190508181036000830152612e1881612ddc565b9050919050565b7f4552433732313a20617070726f766520746f2063616c6c657200000000000000600082015250565b6000612e55601983611f7c565b9150612e6082612e1f565b602082019050919050565b60006020820190508181036000830152612e8481612e48565b9050919050565b7f4552433732313a206d696e7420746f20746865207a65726f2061646472657373600082015250565b6000612ec1602083611f7c565b9150612ecc82612e8b565b602082019050919050565b60006020820190508181036000830152612ef081612eb4565b9050919050565b7f4552433732313a20746f6b656e20616c7265616479206d696e74656400000000600082015250565b6000612f2d601c83611f7c565b9150612f3882612ef7565b602082019050919050565b60006020820190508181036000830152612f5c81612f20565b9050919050565b7f4552433732313a207472616e7366657220746f206e6f6e20455243373231526560008201527f63656976657220696d706c656d656e7465720000000000000000000000000000602082015250565b6000612fbf603283611f7c565b9150612fca82612f63565b604082019050919050565b60006020820190508181036000830152612fee81612fb2565b9050919050565b7f4552433732314d657461646174613a2055524920717565727920666f72206e6f60008201527f6e6578697374656e7420746f6b656e0000000000000000000000000000000000602082015250565b6000613051602f83611f7c565b915061305c82612ff5565b604082019050919050565b6000602082019050818103600083015261308081613044565b9050919050565b600081519050919050565b600082825260208201905092915050565b60006130ae82613087565b6130b88185613092565b93506130c8818560208601611f8d565b6130d181611fc0565b840191505092915050565b60006080820190506130f160008301876120c1565b6130fe60208301866120c1565b61310b60408301856121aa565b818103606083015261311d81846130a3565b905095945050505050565b60008151905061313781611ee2565b92915050565b60006020828403121561315357613152611eac565b5b600061316184828501613128565b91505092915050565b60006131758261202c565b91507fffffffffffffffffffffffffffffffffffffffffffffffffffffffffffffffff82036131a7576131a6612cd4565b5b600182019050919050565b7f4e487b7100000000000000000000000000000000000000000000000000000000600052601260045260246000fd5b60006131ec8261202c565b91506131f78361202c565b925082613207576132066131b2565b5b828204905092915050565b600061321d8261202c565b91506132288361202c565b925082613238576132376131b2565b5b828206905092915050565b7f4e487b7100000000000000000000000000000000000000000000000000000000600052603260045260246000fdfea2646970667358221220c3233e7c73c86ea20ca023394e2a3648d5d37de3ba04b2d0b936c960f882079864736f6c634300080d0033",
  "linkReferences": {},
  "deployedLinkReferences": {}
}